S0140000504F53545F4C41425F345F432E7372656367
S11300000C9434000C9451000C9451000C94510045
S11300100C9460000C9451000C9451000C94510009
S11300200C9451000C9451000C9451000C94510008
S11300300C9451000C9451000C9451000C945100F8
S11300400C9451000C9451000C9451000C945100E8
S11300500C9451000C9401010C9451000C94510027
S11300600C9451000C94510011241FBECFEFD8E022
S1130070DEBFCDBF11E0A0E0B1E0E6E3F2E002C0F4
S113008005900D92A030B107D9F721E0A0E0B1E0CE
S113009001C01D92A130B207E1F70E94A9000C949F
S11300A019010C94000084B1876084B987B1867FFC
S11300B087B988B1896088B98AB18FEF8AB9089500
S11300C01F920F920FB60F9211248F939F938FE379
S11300D09CE90197F1F700C00000339B05C08091B3
S11300E000018F5F80930001309B05C08091000167
S11300F081508093000180910001809100018093E0
S113010000018091000180910001809300019F9182
S11301108F910F900FBE0F901F901895ECE7F0E0B1
S1130120108286E0808380818064808380818F77E1
S11301308083808180628083EAE7F0E0108280819E
S113014088608083808187608083808180688083E9
S113015008950E945300F894ECE6F0E080818960F1
S11301608083E8E6F0E08081826080838AB18FEF4B
S11301708AB91BB81092C1000E948E00789485B190
S1130180826085B9EAE7F0E08081806480838FE94A
S11301909FE00197F1F700C0000085B18D7F85B91C
S11301A08FE99FE00197F1F700C0000085B18460FA
S11301B085B980E28BB98FE99FE00197F1F700C020
S11301C0000085B18B7F85B98FE99FE00197F1F736
S11301D000C0000085B1816085B91BB88091000121
S11301E08BB98FE99FE00197F1F700C0000085B15A
S11301F08E7F85B98FE99FE00197F1F700C0000079
S1130200BECF1F920F920FB60F9211248F93EF93CC
S1130210FF93809179008BB9EAE7F0E080818061F7
S11302208083FF91EF918F910F900FBE0F901F90DD
S10902301895F894FFCFBD
S9030000FC
