S0140000504F53545F4C41425F345F432E7372656367
S11300000C9434000C9451000C9451000C94510045
S11300100C9460000C9451000C9451000C94510009
S11300200C9451000C9451000C9451000C94510008
S11300300C9451000C9451000C9451000C945100F8
S11300400C9451000C9451000C9451000C945100E8
S11300500C9451000C9408010C9451000C94510020
S11300600C9451000C94510011241FBECFEFD8E022
S1130070DEBFCDBF11E0A0E0B1E0E4E3F5E002C0F3
S113008005900D92A031B107D9F721E0A0E1B1E0CC
S113009001C01D92A731B207E1F70E94A9000C9498
S11300A098020C94000084B1876084B987B1867F7C
S11300B087B988B1896088B98AB18FEF8AB9089500
S11300C01F920F920FB60F9211248F939F938FE379
S11300D09CE90197F1F700C00000339B05C08091B3
S11300E016018F5F80931601309B05C08091160125
S11300F0815080931601809116018091160180939E
S113010016018091160180911601809316019F912A
S11301108F910F900FBE0F901F901895ECE7F0E0B1
S1130120108286E0808380818064808380818F77E1
S11301308083808180628083EAE7F0E0108280819E
S113014088608083808187608083808180688083E9
S113015008950E945300F894ECE6F0E080818960F1
S11301608083E8E6F0E08081826080838AB18FEF4B
S11301708AB91BB81092C1000E948E00789485B190
S1130180826085B9E0911101F0E0E050FF4F808179
S11301908BB98FE99FE00197F1F700C0000085B1AA
S11301A08D7F85B98FE99FE00197F1F700C00000CA
S11301B085B1846085B9E0911001F0E0E050FF4F13
S11301C080818BB98FE99FE00197F1F700C00000AF
S11301D085B18B7F85B98FE99FE00197F1F700C066
S11301E0000085B1816085B91BB8809116018BB977
S11301F08FE99FE00197F1F700C0000085B18E7F81
S113020085B98FE99FE00197F1F700C00000B7CFEF
S11302101F920F920FB60F9211242F933F934F9377
S11302205F936F937F938F939F93AF93BF93EF935A
S1130230FF936091790070E080E090E00E94760185
S113024020E838E44FE75EE30E94DA01609312018C
S1130250709313018093140190931501609112011E
S113026070911301809114019091150120E030E008
S11302704EEF52E40E94D501181634F48FE08093B7
S113028011011092100115C06091120170911301B7
S1130290809114019091150120E030E04EEF52E47A
S11302A00E946F0118162CF0109211018FE08093B8
S11302B01001EAE7F0E0808180618083FF91EF9193
S11302C0BF91AF919F918F917F916F915F914F916A
S11302D03F912F910F900FBE0F901F9018950E9481
S11302E0B10108F481E00895E89409C097FB3EF455
S11302F090958095709561957F4F8F4F9F4F99236F
S1130300A9F0F92F96E9BB279395F69587957795EC
S11303106795B795F111F8CFFAF4BB0F11F460FFAC
S11303201BC06F5F7F4F8F4F9F4F16C0882311F004
S113033096E911C0772321F09EE8872F762F05C018
S1130340662371F096E8862F70E060E02AF09A95B3
S1130350660F771F881FDAF7880F9695879597F9A8
S11303600895990F0008550FAA0BE0E8FEEF161642
S11303701706E807F907C0F012161306E407F50795
S113038098F0621B730B840B950B39F40A2661F009
S1130390232B242B252B21F408950A2609F4A140AC
S11303A0A6958FEF811D811D08950E94B10108F467
S11303B08FEF08950E94ED010C945E020E9450029A
S11303C038F00E94570220F0952311F00C94470254
S11303D00C944D0211240C9492020E946F0270F34B
S11303E0959FC1F3950F50E0551F629FF001729FD6
S11303F0BB27F00DB11D639FAA27F00DB11DAA1FE5
S1130400649F6627B00DA11D661F829F2227B00D31
S1130410A11D621F739FB00DA11D621F839FA00DBC
S1130420611D221F749F3327A00D611D231F849F0C
S1130430600D211D822F762F6A2F11249F57504063
S11304409AF0F1F088234AF0EE0FFF1FBB1F661FDE
S1130450771F881F91505040A9F79E3F510580F0A7
S11304600C9447020C9492025F3FE4F3983ED4F359
S1130470869577956795B795F795E7959F5FC1F74B
S1130480FE2B880F911D9695879597F9089597F9F6
S11304909F6780E870E060E008959FEF80EC089526
S11304A000240A941616170618060906089500244F
S11304B00A9412161306140605060895092E0394C9
S11304C0000C11F4882352F0BB0F40F4BF2B11F43D
S11304D060FF04C06F5F7F4F8F4F9F4F089557FD9C
S11304E09058440F551F59F05F3F71F04795880F9E
S11304F097FB991F61F09F3F79F087950895121635
S113050013061406551FF2CF4695F1DF08C01616E0
S113051017061806991FF1CF869571056105089491
S11305200895E894BB2766277727CB0197F90895A8
S1070530F894FFCF69
S11305347E285D6D2B67772C7F2F3F735679571771
S9030000FC
