S0140000504F53545F4C41425F345F432E7372656367
S11300000C9434000C9451000C9451000C94510045
S11300100C9460000C9451000C9451000C94510009
S11300200C9451000C9451000C9451000C94510008
S11300300C9451000C9451000C9451000C945100F8
S11300400C9451000C9451000C9451000C945100E8
S11300500C9451000C9408010C9451000C94510020
S11300600C9451000C94510011241FBECFEFD8E022
S1130070DEBFCDBF11E0A0E0B1E0EEE1FCE002C0E4
S113008005900D92A031B107D9F721E0A0E1B1E0CC
S113009001C01D92A731B207E1F70E94A9000C9498
S11300A00D060C94000084B1876084B987B1867F03
S11300B087B988B1896088B98AB18FEF8AB9089500
S11300C01F920F920FB60F9211248F939F938FE379
S11300D09CE90197F1F700C00000339B05C08091B3
S11300E016018F5F80931601309B05C08091160125
S11300F0815080931601809116018091160180939E
S113010016018091160180911601809316019F912A
S11301108F910F900FBE0F901F901895ECE7F0E0B1
S1130120108286E0808380818064808380818F77E1
S11301308083808180628083EAE7F0E0108280819E
S113014088608083808187608083808180688083E9
S113015008950E945300F894ECE6F0E080818960F1
S11301608083E8E6F0E08081826080838AB18FEF4B
S11301708AB91BB81092C1000E948E00789485B190
S1130180826085B9E0911101F0E0E050FF4F808179
S11301908BB98FE99FE00197F1F700C0000085B1AA
S11301A08D7F85B98FE99FE00197F1F700C00000CA
S11301B085B1846085B9E0911001F0E0E050FF4F13
S11301C080818BB98FE99FE00197F1F700C00000AF
S11301D085B18B7F85B98FE99FE00197F1F700C066
S11301E0000085B1816085B91BB8809116018BB977
S11301F08FE99FE00197F1F700C0000085B18E7F81
S113020085B98FE99FE00197F1F700C00000B7CFEF
S11302101F920F920FB60F9211242F933F934F9377
S11302205F936F937F938F939F93AF93BF93EF935A
S1130230FF93109212011092130110921401109264
S11302401501609112017091130180911401909134
S1130250150120E030E0A9010E9408061816ACF44C
S11302606091120170911301809114019091150114
S113027020E030E040E85FE30E94DF0518162CF030
S113028081E080931101109210016091120170912C
S11302901301809114019091150120E030E040E8B1
S11302A05FE30E9408061816ACF460911201709185
S11302B01301809114019091150120E030E040E099
S11302C050E40E94DF0518162CF082E0809311019F
S11302D01092100160911201709113018091140128
S11302E09091150120E030E040E050E40E940806BF
S11302F01816ACF4609112017091130180911401ED
S11303009091150120E030E040E450E40E94DF05C4
S113031018162CF083E08093110110921001609163
S1130320120170911301809114019091150120E044
S113033030E040E450E40E9408061816ACF46091E2
S1130340120170911301809114019091150120E024
S113035030E040E850E40E94DF0518162CF084E0F9
S11303608093110110921001609112017091130198
S1130370809114019091150120E030E040E850E4B0
S11303800E9408061816ACF46091120170911301D2
S1130390809114019091150120E030E040EA50E48E
S11303A00E94DF0518162CF085E08093110110924D
S11303B010016091120170911301809114019091C8
S11303C0150120E030E040EA50E40E9408061816C7
S11303D0ACF4609112017091130180911401909119
S11303E0150120E030E040EC50E40E94DF051816CF
S11303F02CF086E08093110110921001609112019B
S113040070911301809114019091150120E030E066
S113041040EC50E40E9408061816ACF460911201F6
S113042070911301809114019091150120E030E046
S113043040EE50E40E94DF0518162CF087E080930C
S113044011011092100160911201709113018091B9
S113045014019091150120E030E040EE50E40E9438
S113046008061816ACF46091120170911301809182
S113047014019091150120E030E040E051E40E9425
S1130480DF0518162CF088E08093110110921001FA
S113049060911201709113018091140190911501E2
S11304A020E030E040E051E40E9408061816ACF465
S11304B060911201709113018091140190911501C2
S11304C020E030E040E151E40E94DF0518162CF0F2
S11304D089E08093110110921001609112017091D2
S11304E01301809114019091150120E030E040E166
S11304F051E40E9408061816ACF460911201709140
S11305001301809114019091150120E030E040E244
S113051051E40E94DF0518162CF08AE08093110143
S113052010921001609112017091130180911401D5
S11305309091150120E030E040E251E40E94080669
S11305401816ACF46091120170911301809114019A
S11305509091150120E030E040E351E40E94DF0572
S113056018162CF08BE08093110110921001609109
S1130570120170911301809114019091150120E0F2
S113058030E040E351E40E9408061816ACF4609190
S1130590120170911301809114019091150120E0D2
S11305A030E040E451E40E94DF0518162CF08CE0A2
S11305B08093110110921001609112017091130146
S11305C0809114019091150120E030E040E451E461
S11305D00E9408061816ACF4609112017091130180
S11305E0809114019091150120E030E040E551E440
S11305F00E94DF0518162CF08DE0809311011092F3
S11306001001609112017091130180911401909175
S1130610150120E030E040E551E40E940806181678
S1130620ACF46091120170911301809114019091C6
S1130630150120E030E040E651E40E94DF05181681
S11306402CF08EE080931101109210016091120140
S113065070911301809114019091150120E030E014
S113066040E651E40E9408061816ACF460911201A9
S113067070911301809114019091150120E030E0F4
S113068040E751E40E94DF0518162CF08FE08093B8
S11306901101109210016091120170911301809167
S11306A014019091150120E030E040E751E40E94EC
S11306B008061816ACF46091120170911301809130
S11306C014019091150120E030E040E851E40E94CB
S11306D0DF0518162CF01092110181E080931001AF
S11306E06091120170911301809114019091150190
S11306F020E030E040E851E40E9408061816ACF40B
S1130700609112017091130180911401909115016F
S113071020E030E048E851E40E94DF0518162CF090
S113072081E0809311018093100160911201709116
S11307301301809114019091150120E030E048E804
S113074051E40E9408061816B4F4609112017091E5
S11307501301809114019091150120E030E040E9EB
S113076051E40E94DF05181634F082E080931101F1
S113077081E08093100160911201709113018091C6
S113078014019091150120E030E040E951E40E9409
S113079008061816B4F46091120170911301809147
S11307A014019091150120E030E040E951E40E94E9
S11307B0DF05181634F083E08093110181E0809303
S11307C010016091120170911301809114019091B4
S11307D0150120E030E048E951E40E9408061816AB
S11307E0B4F46091120170911301809114019091FD
S11307F0150120E030E048E951E40E94DF051816B5
S113080034F084E08093110181E0809310016091C1
S1130810120170911301809114019091150120E04F
S113082030E040EA51E40E9408061816B4F46091DE
S1130830120170911301809114019091150120E02F
S113084030E040EA51E40E94DF05181634F085E0F8
S11308508093110181E080931001609112017091E5
S11308601301809114019091150120E030E048EAD1
S113087051E40E9408061816B4F4609112017091B4
S11308801301809114019091150120E030E048EAB1
S113089051E40E94DF05181634F086E080931101BC
S11308A081E0809310016091120170911301809195
S11308B014019091150120E030E040EB51E40E94D6
S11308C008061816B4F46091120170911301809116
S11308D014019091150120E030E040EB51E40E94B6
S11308E0DF05181634F087E08093110181E08093CE
S11308F01001609112017091130180911401909183
S1130900150120E030E048EB51E40E940806181677
S1130910B4F46091120170911301809114019091CB
S1130920150120E030E048EB51E40E94DF05181681
S113093034F088E08093110181E08093100160918C
S1130940120170911301809114019091150120E01E
S113095030E040EC51E40E9408061816B4F46091AB
S1130960120170911301809114019091150120E0FE
S113097030E040EC51E40E94DF05181634F089E0C1
S11309808093110181E080931001609112017091B4
S11309901301809114019091150120E030E048EC9E
S11309A051E40E9408061816B4F460911201709183
S11309B01301809114019091150120E030E048EC7E
S11309C051E40E94DF05181634F08AE08093110187
S11309D081E0809310016091120170911301809164
S11309E014019091150120E030E040ED51E40E94A3
S11309F008061816B4F460911201709113018091E5
S1130A0014019091150120E030E040ED51E40E9482
S1130A10DF05181634F08BE08093110181E0809398
S1130A201001609112017091130180911401909151
S1130A30150120E030E048ED51E40E940806181644
S1130A40B4F460911201709113018091140190919A
S1130A50150120E030E048ED51E40E94DF0518164E
S1130A6034F08CE08093110181E080931001609157
S1130A70120170911301809114019091150120E0ED
S1130A8030E040EE51E40E9408061816B4F4609178
S1130A90120170911301809114019091150120E0CD
S1130AA030E040EE51E40E94DF05181634F08DE08A
S1130AB08093110181E08093100160911201709183
S1130AC01301809114019091150120E030E048EE6B
S1130AD051E40E9408061816B4F460911201709152
S1130AE01301809114019091150120E030E048EE4B
S1130AF051E40E94DF05181634F08EE08093110152
S1130B0081E0809310016091120170911301809132
S1130B1014019091150120E030E040EF51E40E946F
S1130B2008061816B4F460911201709113018091B3
S1130B3014019091150120E030E040EF51E40E944F
S1130B40DF05181634F08FE08093110181E0809363
S1130B501001609112017091130180911401909120
S1130B60150120E030E048EF51E40E940806181611
S1130B70ACF4609112017091130180911401909171
S1130B80150120E030E048EF51E40E94DF0518161B
S1130B902CF01092110182E080931001FF91EF91EB
S1130BA0BF91AF919F918F917F916F915F914F9181
S1130BB03F912F910F900FBE0F901F9018950E9498
S1130BC0E40508F481E00895990F0008550FAA0B75
S1130BD0E0E8FEEF16161706E807F907C0F012164C
S1130BE01306E407F50798F0621B730B840B950B4F
S1130BF039F40A2661F0232B242B252B21F40895A4
S1130C000A2609F4A140A6958FEF811D811D089540
S1110C100E94E40508F48FEF0895F894FFCFD6
S1130C1E7E285D6D2B67772C7F2F3F735679571780
S9030000FC
