S0140000504F53545F4C41425F345F432E7372656367
S11300000C9434000C9451000C9451000C94510045
S11300100C9460000C9451000C9451000C94510009
S11300200C9451000C9451000C9451000C94510008
S11300300C9451000C9451000C9451000C945100F8
S11300400C9451000C9451000C9451000C945100E8
S11300500C9451000C94E1000C9451000C94510048
S11300600C9451000C94510011241FBECFEFD8E022
S1130070DEBFCDBF11E0A0E0B1E0E8E7F2E002C0EE
S113008005900D92A031B107D9F721E0A0E1B1E0CC
S113009001C01D92A331B207E1F70E94A9000C949C
S11300A03A010C94000084B1876084B987B1867FDB
S11300B087B988B1896088B98AB18FEF8AB9089500
S11300C01F920F920FB60F9211248F939F938FE379
S11300D09CE90197F1F700C00000339B05C08091B3
S11300E012018F5F80931201309B05C08091120131
S11300F081508093120180911201809112018093AA
S113010012018091120180911201809312019F913A
S11301108F910F900FBE0F901F901895ECE7F0E0B1
S1130120108285E0808380818064808380818F77E2
S11301308083808180628083EAE7F0E0108280819E
S113014088608083808187608083808180688083E9
S113015008950E945300F894ECE6F0E080818960F1
S11301608083E8E6F0E08081826080838AB18FEF4B
S11301708AB91BB81092C1000E948E00789485B190
S1130180816085B91BB8809112018BB98FE99FE01A
S11301900197F1F700C0000085B18E7F85B98FE922
S11301A09FE00197F1F700C00000EAE7F0E08081EA
S11301B0806480838FE99FE00197F1F700C000001D
S11301C0DECF1F920F920FB60F9211248F939F933D
S11301D0EF93FF93E9E7F0E080818F708093100143
S11301E08081807F809311018091110182958F70AD
S11301F08093110185B1826085B9E0911001F0E02E
S1130200E050FF4F80818BB98FE99FE00197F1F7B0
S113021000C0000085B18D7F85B98FE99FE001970B
S1130220F1F700C0000085B1846085B9E091110147
S1130230F0E0E050FF4F80818BB98FE99FE0019798
S1130240F1F700C0000085B18B7F85B98FE99FE08D
S11302500197F1F700C00000EAE7F0E080818061D7
S11302608083FF91EF919F918F910F900FBE0F901C
S10B02701F901895F894FFCFCC
S11302783F0A5D5B6A73771A7F7A7E67354F7574B8
S9030000FC
