S0140000504F53545F4C41425F345F432E7372656367
S11300000C9434000C9451000C9451000C94510045
S11300100C9451000C9451000C9451000C94510018
S11300200C9451000C9451000C9451000C94510008
S11300300C9451000C9451000C9451000C945100F8
S11300400C9451000C9451000C9451000C945100E8
S11300500C9451000C948F000C9451000C9451009A
S11300600C9451000C94510011241FBECFEFD8E022
S1130070DEBFCDBF11E0A0E0B1E0E2E5F1E002C0F7
S113008005900D92A030B107D9F721E0A0E0B1E0CE
S113009001C01D92A030B207E1F70E9471000C94D8
S11300A0A7000C94000084B1836084B90895ECE740
S11300B0F0E086E0808380818064808380818F7714
S11300C08083808180628083EAE7F0E0108280810F
S11300D0886080838081876080838081806880835A
S11300E008950E945300F8948AB18FEF8AB91BB81F
S11300F01092C1000E945700789485B1826085B93E
S1130100EAE7F0E08081806480832FEF83EC99E05C
S1130110215080409040E1F700C00000EECF1F92D4
S11301200F920FB60F9211248F93EF93FF93809148
S113013079008BB9EAE7F0E0808180618083FF91E8
S1130140EF918F910F900FBE0F901F901895F89418
S1050150FFCFDB
S9030000FC
