S0140000504F53545F4C41425F345F432E7372656367
S11300000C9434000C9446000C9446000C94460066
S11300100C94A2000C9446000C9446000C944600E8
S11300200C9446000C9446000C9446000C94460034
S11300300C9446000C9446000C9446000C94460024
S11300400C9446000C9446000C9446000C94460014
S11300500C9446000C9446000C9446000C94460004
S11300600C9446000C94460011241FBECFEFD8E038
S1130070DEBFCDBF21E0A0E0B1E001C01D92A13000
S1130080B207E1F70E9455000C94D0000C940000D4
S113009084B1876084B987B1867F87B988B1896064
S11300A088B98AB18FEF8AB90895F894ECE6F0E044
S11300B0808189608083E8E6F0E0808182608083CB
S11300C00E944800789485B1826085B980E58BB937
S11300D089EF90E00197F1F700C0000085B18D7FB2
S11300E085B989EF90E00197F1F700C0000085B170
S11300F0846085B980E28BB989EF90E00197F1F7CC
S113010000C0000085B18B7F85B989EF90E001972D
S1130110F1F700C0000085B1816085B91BB88091FA
S113012000018BB989EF90E00197F1F700C000005E
S113013085B18E7F85B989EF90E00197F1F700C012
S11301400000C1CF1F920F920FB60F9211248F930C
S11301509F9383EC99E00197F1F700C00000339B73
S113016005C0809100018F5F80930001309B05C022
S11301708091000181508093000180910001809161
S1130180000180930001809100018091000180931F
S113019000019F918F910F900FBE0F901F901895A3
S10701A0F894FFCFFD
S9030000FC
