S0140000504F53545F4C41425F345F432E7372656367
S11300000C9434000C9451000C9451000C94510045
S11300100C94AD000C9451000C9451000C945100BC
S11300200C9451000C9451000C9451000C94510008
S11300300C9451000C9451000C9451000C945100F8
S11300400C9451000C9451000C9451000C945100E8
S11300500C9451000C9451000C9451000C945100D8
S11300600C9451000C94510011241FBECFEFD8E022
S1130070DEBFCDBF11E0A0E0B1E0EAEBF1E002C0E9
S113008005900D92A030B107D9F721E0A0E0B1E0CE
S113009001C01D92A130B207E1F70E9460000C94E8
S11300A0DB000C94000084B1876084B987B1867F3B
S11300B087B988B1896088B98AB18FEF8AB9089500
S11300C0F894ECE6F0E0808189608083E8E6F0E073
S11300D08081826080830E945300789485B182601D
S11300E085B980E58BB989EF90E00197F1F700C0FD
S11300F0000085B18D7F85B989EF90E00197F1F714
S113010000C0000085B1846085B980E28BB989EFB5
S113011090E00197F1F700C0000085B18B7F85B9AD
S113012089EF90E00197F1F700C0000085B181608C
S113013085B91BB8809100018BB989EF90E00197D4
S1130140F1F700C0000085B18E7F85B989EF90E09A
S11301500197F1F700C00000C1CF1F920F920FB6B4
S11301600F9211248F939F9383EC99E00197F1F7F9
S113017000C00000339B05C0809100018F5F809315
S11301800001309B05C080910001815080930001E3
S11301908091000180910001809300018091000111
S11301A080910001809300019F918F910F900FBE69
S10D01B00F901F901895F894FFCFEC
S9030000FC
